{
  "contractName": "Funding",
  "abi": [
    {
      "inputs": [],
      "stateMutability": "nonpayable",
      "type": "constructor"
    },
    {
      "inputs": [],
      "name": "isAvaliable",
      "outputs": [
        {
          "internalType": "bool",
          "name": "",
          "type": "bool"
        }
      ],
      "stateMutability": "view",
      "type": "function"
    },
    {
      "inputs": [],
      "name": "moneyPool",
      "outputs": [
        {
          "internalType": "uint256",
          "name": "",
          "type": "uint256"
        }
      ],
      "stateMutability": "view",
      "type": "function"
    },
    {
      "inputs": [],
      "name": "owner",
      "outputs": [
        {
          "internalType": "address",
          "name": "",
          "type": "address"
        }
      ],
      "stateMutability": "view",
      "type": "function"
    },
    {
      "inputs": [],
      "name": "fundTo",
      "outputs": [],
      "stateMutability": "payable",
      "type": "function"
    },
    {
      "inputs": [],
      "name": "startFunding",
      "outputs": [],
      "stateMutability": "nonpayable",
      "type": "function"
    },
    {
      "inputs": [],
      "name": "endFunding",
      "outputs": [],
      "stateMutability": "nonpayable",
      "type": "function"
    }
  ],
  "bytecode": "0x608060405234801561001057600080fd5b50336000806101000a81548173ffffffffffffffffffffffffffffffffffffffff021916908373ffffffffffffffffffffffffffffffffffffffff1602179055506106c1806100606000396000f3fe6080604052600436106100555760003560e01c80630cf010511461005a5780631c8eac0f14610071578063342354431461008857806374f21848146100b35780638da5cb5b146100bd578063d9a9ab78146100e8575b600080fd5b34801561006657600080fd5b5061006f610113565b005b34801561007d57600080fd5b506100866101be565b005b34801561009457600080fd5b5061009d6102d2565b6040516100aa9190610392565b60405180910390f35b6100bb6102d8565b005b3480156100c957600080fd5b506100d2610342565b6040516100df91906103ee565b60405180910390f35b3480156100f457600080fd5b506100fd610366565b60405161010a9190610424565b60405180910390f35b60008054906101000a900473ffffffffffffffffffffffffffffffffffffffff1673ffffffffffffffffffffffffffffffffffffffff163373ffffffffffffffffffffffffffffffffffffffff16146101a1576040517f08c379a0000000000000000000000000000000000000000000000000000000008152600401610198906104c2565b60405180910390fd5b6001600260006101000a81548160ff021916908315150217905550565b60008054906101000a900473ffffffffffffffffffffffffffffffffffffffff1673ffffffffffffffffffffffffffffffffffffffff163373ffffffffffffffffffffffffffffffffffffffff161461024c576040517f08c379a000000000000000000000000000000000000000000000000000000000815260040161024390610554565b60405180910390fd5b6000600260006101000a81548160ff02191690831515021790555060008054906101000a900473ffffffffffffffffffffffffffffffffffffffff1673ffffffffffffffffffffffffffffffffffffffff166108fc6001549081150290604051600060405180830381858888f193505050501580156102cf573d6000803e3d6000fd5b50565b60015481565b600260009054906101000a900460ff16610327576040517f08c379a000000000000000000000000000000000000000000000000000000000815260040161031e906105e6565b60405180910390fd5b34600160008282546103399190610635565b92505081905550565b60008054906101000a900473ffffffffffffffffffffffffffffffffffffffff1681565b600260009054906101000a900460ff1681565b6000819050919050565b61038c81610379565b82525050565b60006020820190506103a76000830184610383565b92915050565b600073ffffffffffffffffffffffffffffffffffffffff82169050919050565b60006103d8826103ad565b9050919050565b6103e8816103cd565b82525050565b600060208201905061040360008301846103df565b92915050565b60008115159050919050565b61041e81610409565b82525050565b60006020820190506104396000830184610415565b92915050565b600082825260208201905092915050565b7f4f6e6c79206f776e65722063616e20737461727420746869732066756e64696e60008201527f672070726f6a6563740000000000000000000000000000000000000000000000602082015250565b60006104ac60298361043f565b91506104b782610450565b604082019050919050565b600060208201905081810360008301526104db8161049f565b9050919050565b7f4f6e6c79206f776e65722063616e20636c6f736520746869732066756e64696e60008201527f672070726f6a6563740000000000000000000000000000000000000000000000602082015250565b600061053e60298361043f565b9150610549826104e2565b604082019050919050565b6000602082019050818103600083015261056d81610531565b9050919050565b7f546869732070726f6a656374206e6f74206176616c6961626c6520746f20667560008201527f6e64000000000000000000000000000000000000000000000000000000000000602082015250565b60006105d060228361043f565b91506105db82610574565b604082019050919050565b600060208201905081810360008301526105ff816105c3565b9050919050565b7f4e487b7100000000000000000000000000000000000000000000000000000000600052601160045260246000fd5b600061064082610379565b915061064b83610379565b9250827fffffffffffffffffffffffffffffffffffffffffffffffffffffffffffffffff038211156106805761067f610606565b5b82820190509291505056fea264697066735822122022269af82eda64e875b67f4ccae6f86851dc30ef557347368633b1d789621d4b64736f6c634300080c0033",
  "immutableReferences": {},
  "source": "pragma solidity ^0.8.1;\r\n\r\n// SPDX-License-Identifier: GPL-3.0\r\n\r\ncontract Funding {\r\n    address public owner;\r\n    uint256 public moneyPool;\r\n    bool public isAvaliable;\r\n\r\n    constructor() {\r\n        owner = msg.sender;\r\n    }\r\n\r\n    function fundTo() external payable {\r\n        require(isAvaliable, \"This project not avaliable to fund\");\r\n        moneyPool += msg.value;\r\n    }\r\n\r\n    function startFunding() external {\r\n        require(\r\n            msg.sender == owner,\r\n            \"Only owner can start this funding project\"\r\n        );\r\n        isAvaliable = true;\r\n    }\r\n\r\n    function endFunding() external {\r\n        require(\r\n            msg.sender == owner,\r\n            \"Only owner can close this funding project\"\r\n        );\r\n        isAvaliable = false;\r\n        payable(owner).transfer(moneyPool);\r\n    }\r\n}\r\n",
  "sourcePath": "E:\\Project\\Dapp-ProjectFunding\\contracts\\Funding.sol",
  "compiler": {
    "name": "solc",
    "version": "0.8.12+commit.f00d7308.Emscripten.clang"
  },
  "schemaVersion": "3.4.5",
  "updatedAt": "2022-03-11T08:18:27.389Z",
  "devdoc": {
    "kind": "dev",
    "methods": {},
    "version": 1
  },
  "userdoc": {
    "kind": "user",
    "methods": {},
    "version": 1
  }
}