{
  "contractName": "Funding",
  "abi": [
    {
      "inputs": [],
      "stateMutability": "nonpayable",
      "type": "constructor"
    },
    {
      "inputs": [],
      "name": "a",
      "outputs": [
        {
          "internalType": "address",
          "name": "",
          "type": "address"
        }
      ],
      "stateMutability": "view",
      "type": "function"
    },
    {
      "inputs": [],
      "name": "isAvaliable",
      "outputs": [
        {
          "internalType": "bool",
          "name": "",
          "type": "bool"
        }
      ],
      "stateMutability": "view",
      "type": "function"
    },
    {
      "inputs": [],
      "name": "moneyPool",
      "outputs": [
        {
          "internalType": "uint256",
          "name": "",
          "type": "uint256"
        }
      ],
      "stateMutability": "view",
      "type": "function"
    },
    {
      "inputs": [],
      "name": "owner",
      "outputs": [
        {
          "internalType": "address",
          "name": "",
          "type": "address"
        }
      ],
      "stateMutability": "view",
      "type": "function"
    },
    {
      "inputs": [],
      "name": "fundTo",
      "outputs": [],
      "stateMutability": "payable",
      "type": "function"
    },
    {
      "inputs": [],
      "name": "startFunding",
      "outputs": [],
      "stateMutability": "nonpayable",
      "type": "function"
    },
    {
      "inputs": [],
      "name": "endFunding",
      "outputs": [],
      "stateMutability": "nonpayable",
      "type": "function"
    },
    {
      "inputs": [],
      "name": "getOwner",
      "outputs": [
        {
          "internalType": "address",
          "name": "",
          "type": "address"
        }
      ],
      "stateMutability": "view",
      "type": "function"
    }
  ],
  "bytecode": "0x608060405234801561001057600080fd5b50336000806101000a81548173ffffffffffffffffffffffffffffffffffffffff021916908373ffffffffffffffffffffffffffffffffffffffff16021790555060008054906101000a900473ffffffffffffffffffffffffffffffffffffffff16600260016101000a81548173ffffffffffffffffffffffffffffffffffffffff021916908373ffffffffffffffffffffffffffffffffffffffff16021790555061078c806100c16000396000f3fe60806040526004361061007b5760003560e01c806374f218481161004e57806374f2184814610104578063893d20e81461010e5780638da5cb5b14610139578063d9a9ab78146101645761007b565b80630cf01051146100805780630dbe671f146100975780631c8eac0f146100c257806334235443146100d9575b600080fd5b34801561008c57600080fd5b5061009561018f565b005b3480156100a357600080fd5b506100ac61023a565b6040516100b99190610485565b60405180910390f35b3480156100ce57600080fd5b506100d7610260565b005b3480156100e557600080fd5b506100ee610374565b6040516100fb91906104b9565b60405180910390f35b61010c61037a565b005b34801561011a57600080fd5b506101236103e4565b6040516101309190610485565b60405180910390f35b34801561014557600080fd5b5061014e61040d565b60405161015b9190610485565b60405180910390f35b34801561017057600080fd5b50610179610431565b60405161018691906104ef565b60405180910390f35b60008054906101000a900473ffffffffffffffffffffffffffffffffffffffff1673ffffffffffffffffffffffffffffffffffffffff163373ffffffffffffffffffffffffffffffffffffffff161461021d576040517f08c379a00000000000000000000000000000000000000000000000000000000081526004016102149061058d565b60405180910390fd5b6001600260006101000a81548160ff021916908315150217905550565b600260019054906101000a900473ffffffffffffffffffffffffffffffffffffffff1681565b60008054906101000a900473ffffffffffffffffffffffffffffffffffffffff1673ffffffffffffffffffffffffffffffffffffffff163373ffffffffffffffffffffffffffffffffffffffff16146102ee576040517f08c379a00000000000000000000000000000000000000000000000000000000081526004016102e59061061f565b60405180910390fd5b6000600260006101000a81548160ff02191690831515021790555060008054906101000a900473ffffffffffffffffffffffffffffffffffffffff1673ffffffffffffffffffffffffffffffffffffffff166108fc6001549081150290604051600060405180830381858888f19350505050158015610371573d6000803e3d6000fd5b50565b60015481565b600260009054906101000a900460ff166103c9576040517f08c379a00000000000000000000000000000000000000000000000000000000081526004016103c0906106b1565b60405180910390fd5b34600160008282546103db9190610700565b92505081905550565b60008060009054906101000a900473ffffffffffffffffffffffffffffffffffffffff16905090565b60008054906101000a900473ffffffffffffffffffffffffffffffffffffffff1681565b600260009054906101000a900460ff1681565b600073ffffffffffffffffffffffffffffffffffffffff82169050919050565b600061046f82610444565b9050919050565b61047f81610464565b82525050565b600060208201905061049a6000830184610476565b92915050565b6000819050919050565b6104b3816104a0565b82525050565b60006020820190506104ce60008301846104aa565b92915050565b60008115159050919050565b6104e9816104d4565b82525050565b600060208201905061050460008301846104e0565b92915050565b600082825260208201905092915050565b7f4f6e6c79206f776e65722063616e20737461727420746869732066756e64696e60008201527f672070726f6a6563740000000000000000000000000000000000000000000000602082015250565b600061057760298361050a565b91506105828261051b565b604082019050919050565b600060208201905081810360008301526105a68161056a565b9050919050565b7f4f6e6c79206f776e65722063616e20636c6f736520746869732066756e64696e60008201527f672070726f6a6563740000000000000000000000000000000000000000000000602082015250565b600061060960298361050a565b9150610614826105ad565b604082019050919050565b60006020820190508181036000830152610638816105fc565b9050919050565b7f546869732070726f6a656374206e6f74206176616c6961626c6520746f20667560008201527f6e64000000000000000000000000000000000000000000000000000000000000602082015250565b600061069b60228361050a565b91506106a68261063f565b604082019050919050565b600060208201905081810360008301526106ca8161068e565b9050919050565b7f4e487b7100000000000000000000000000000000000000000000000000000000600052601160045260246000fd5b600061070b826104a0565b9150610716836104a0565b9250827fffffffffffffffffffffffffffffffffffffffffffffffffffffffffffffffff0382111561074b5761074a6106d1565b5b82820190509291505056fea26469706673582212207d341f51932a8f87bf9613fd87c710b5ea13697535e6dd8ccdce7c2d1899e18664736f6c634300080c0033",
  "immutableReferences": {},
  "source": "pragma solidity ^0.8.1;\r\n// SPDX-License-Identifier: GPL-3.0\r\n\r\ncontract Funding {\r\n    address public owner;\r\n    uint public moneyPool;\r\n    bool public isAvaliable;\r\n    address public a;\r\n\r\n    constructor() {\r\n        owner = msg.sender;\r\n        a = owner;\r\n    }\r\n\r\n\r\n    function fundTo() payable external {\r\n        require(isAvaliable, \"This project not avaliable to fund\");\r\n        moneyPool += msg.value;\r\n    }\r\n\r\n     function startFunding() external{\r\n        require(msg.sender == owner, \"Only owner can start this funding project\");\r\n        isAvaliable = true;\r\n    }\r\n\r\n    function endFunding() external{\r\n        require(msg.sender == owner, \"Only owner can close this funding project\");\r\n        isAvaliable = false;\r\n        payable(owner).transfer(moneyPool);\r\n    }\r\n\r\n    function getOwner() external view returns(address){\r\n        return owner;\r\n    }\r\n}",
  "sourcePath": "E:\\Project\\Dapp-ProjectFunding\\contracts\\Funding.sol",
  "compiler": {
    "name": "solc",
    "version": "0.8.12+commit.f00d7308.Emscripten.clang"
  },
  "schemaVersion": "3.4.5",
  "updatedAt": "2022-03-10T09:01:44.604Z",
  "devdoc": {
    "kind": "dev",
    "methods": {},
    "version": 1
  },
  "userdoc": {
    "kind": "user",
    "methods": {},
    "version": 1
  }
}