{
  "contractName": "Funding",
  "abi": [
    {
      "inputs": [],
      "stateMutability": "nonpayable",
      "type": "constructor"
    },
    {
      "inputs": [],
      "name": "isAvaliable",
      "outputs": [
        {
          "internalType": "bool",
          "name": "",
          "type": "bool"
        }
      ],
      "stateMutability": "view",
      "type": "function"
    },
    {
      "inputs": [],
      "name": "moneyPool",
      "outputs": [
        {
          "internalType": "uint256",
          "name": "",
          "type": "uint256"
        }
      ],
      "stateMutability": "view",
      "type": "function"
    },
    {
      "inputs": [],
      "name": "fundTo",
      "outputs": [],
      "stateMutability": "payable",
      "type": "function"
    },
    {
      "inputs": [],
      "name": "startFunding",
      "outputs": [],
      "stateMutability": "nonpayable",
      "type": "function"
    },
    {
      "inputs": [],
      "name": "endFunding",
      "outputs": [],
      "stateMutability": "nonpayable",
      "type": "function"
    }
  ],
  "bytecode": "0x608060405234801561001057600080fd5b50336000806101000a81548173ffffffffffffffffffffffffffffffffffffffff021916908373ffffffffffffffffffffffffffffffffffffffff16021790555061060b806100606000396000f3fe60806040526004361061004a5760003560e01c80630cf010511461004f5780631c8eac0f14610066578063342354431461007d57806374f21848146100a8578063d9a9ab78146100b2575b600080fd5b34801561005b57600080fd5b506100646100dd565b005b34801561007257600080fd5b5061007b610188565b005b34801561008957600080fd5b5061009261029c565b60405161009f9190610338565b60405180910390f35b6100b06102a2565b005b3480156100be57600080fd5b506100c761030c565b6040516100d4919061036e565b60405180910390f35b60008054906101000a900473ffffffffffffffffffffffffffffffffffffffff1673ffffffffffffffffffffffffffffffffffffffff163373ffffffffffffffffffffffffffffffffffffffff161461016b576040517f08c379a00000000000000000000000000000000000000000000000000000000081526004016101629061040c565b60405180910390fd5b6001600260006101000a81548160ff021916908315150217905550565b60008054906101000a900473ffffffffffffffffffffffffffffffffffffffff1673ffffffffffffffffffffffffffffffffffffffff163373ffffffffffffffffffffffffffffffffffffffff1614610216576040517f08c379a000000000000000000000000000000000000000000000000000000000815260040161020d9061049e565b60405180910390fd5b6000600260006101000a81548160ff02191690831515021790555060008054906101000a900473ffffffffffffffffffffffffffffffffffffffff1673ffffffffffffffffffffffffffffffffffffffff166108fc6001549081150290604051600060405180830381858888f19350505050158015610299573d6000803e3d6000fd5b50565b60015481565b600260009054906101000a900460ff166102f1576040517f08c379a00000000000000000000000000000000000000000000000000000000081526004016102e890610530565b60405180910390fd5b3460016000828254610303919061057f565b92505081905550565b600260009054906101000a900460ff1681565b6000819050919050565b6103328161031f565b82525050565b600060208201905061034d6000830184610329565b92915050565b60008115159050919050565b61036881610353565b82525050565b6000602082019050610383600083018461035f565b92915050565b600082825260208201905092915050565b7f4f6e6c79206f776e65722063616e20737461727420746869732066756e64696e60008201527f672070726f6a6563740000000000000000000000000000000000000000000000602082015250565b60006103f6602983610389565b91506104018261039a565b604082019050919050565b60006020820190508181036000830152610425816103e9565b9050919050565b7f4f6e6c79206f776e65722063616e20636c6f736520746869732066756e64696e60008201527f672070726f6a6563740000000000000000000000000000000000000000000000602082015250565b6000610488602983610389565b91506104938261042c565b604082019050919050565b600060208201905081810360008301526104b78161047b565b9050919050565b7f546869732070726f6a656374206e6f74206176616c6961626c6520746f20667560008201527f6e64000000000000000000000000000000000000000000000000000000000000602082015250565b600061051a602283610389565b9150610525826104be565b604082019050919050565b600060208201905081810360008301526105498161050d565b9050919050565b7f4e487b7100000000000000000000000000000000000000000000000000000000600052601160045260246000fd5b600061058a8261031f565b91506105958361031f565b9250827fffffffffffffffffffffffffffffffffffffffffffffffffffffffffffffffff038211156105ca576105c9610550565b5b82820190509291505056fea2646970667358221220d9c535def403fe291961fae0ff6adc4addcaac979ba9c143f87725936bf3e87c64736f6c634300080c0033",
  "immutableReferences": {},
  "source": "pragma solidity ^0.8.1;\r\n// SPDX-License-Identifier: GPL-3.0\r\n\r\ncontract Funding {\r\n    address owner;\r\n    uint public moneyPool;\r\n    bool public isAvaliable;\r\n\r\n    constructor() {\r\n        owner = msg.sender;\r\n    }\r\n\r\n\r\n    function fundTo() payable external {\r\n        require(isAvaliable, \"This project not avaliable to fund\");\r\n        moneyPool += msg.value;\r\n    }\r\n\r\n     function startFunding() external{\r\n        require(msg.sender == owner, \"Only owner can start this funding project\");\r\n        isAvaliable = true;\r\n    }\r\n\r\n    function endFunding() external{\r\n        require(msg.sender == owner, \"Only owner can close this funding project\");\r\n        isAvaliable = false;\r\n        payable(owner).transfer(moneyPool);\r\n    }\r\n}",
  "sourcePath": "E:\\Project\\Dapp-ProjectFunding\\contracts\\Funding.sol",
  "compiler": {
    "name": "solc",
    "version": "0.8.12+commit.f00d7308.Emscripten.clang"
  },
  "schemaVersion": "3.4.5",
  "updatedAt": "2022-03-10T04:22:50.841Z",
  "devdoc": {
    "kind": "dev",
    "methods": {},
    "version": 1
  },
  "userdoc": {
    "kind": "user",
    "methods": {},
    "version": 1
  }
}